:020000040000FA
:10000000831617100F108F306038831203179E016C
:100010009F0103139F0183169F0183120317990108
:100020009A019B013528A5002408A600A701A80174
:100030002C2883120313A130A0007B30A1000A12E8
:100040008A11A10B1F280A128A11A00B1D2800007B
:100050000000A70A0319A80A27082502A0002808FB
:1000600026022004031D19280800831605107D149C
:100070007D088312850001300313A300A40113201F
:100080007D107D088312850004300313A300A401B2
:0400900013203728DA
:02400E00F4308C
:00000001FF
